:10000000022BC2C0E0C0D075D000C000C006C2C67E
:100010007808E6FE08E64E6006E61618700116D06F
:0800200006D000D0D0D0E03280
:10002B0002000390855A74FFF0A37401F01234118F
:10003B007F2C7E011233A4122CD0E4FDFCFF7E102A
:10004B0012327DE4FF1224A27B017A8179A1122E58
:10005B002E122E931233C5908559EFF0A3E0FF902B
:10006B008559E06F601CE0FF12331F908559E0A3A8
:10007B00F0A37401F0908427E060077F3C7E0012B0
:10008B0033A4908427E0600890855BE0FF121EE6A6
:10009B00E490855BF07F32FE1233A47F007E10125A
:1000AB00334E90855CEEF0A3EFF090855CE0FEA301
:1000BB00E04E6009E4FDFCFF7E1012327D90855C02
:1000CB00E0FEA3E0FF120103122714122E9380848B
:1000DB0022908568EFF0E4908427F0908568E0909B
:1000EB00854CF0E4908547F090854AF022FFFF4461
:1000FB0057494E5435022C0990855EEEF0A3EFF074
:10010B00908538E004F07006908537E004F0908419
:10011B0027E07018908547E004F0E0C3943C50034F
:10012B000205CC90854CE0908427F02290854AE024
:10013B00600214F0908549E060030205CC9084279F
:10014B00E0B40A0C90855EE0FEA3E0FF121A822257
:10015B0090855EE0FEA3E064264E7025908427E038
:10016B0064016004E0B40819908548E0045403F07E
:10017B00908427E0640860030205CC90854404F06A
:10018B0022908427E0C39402402DE0D3940550279E
:10019B00908539E004F0E0C39414401BE4F09085A3
:1001AB0035E0FEA3E0946FEE9417500BE004F07073
:1001BB0006908535E004F090853BE0600914F0E093
:1001CB00700490853AF0908427E064017047908525
:1001DB005EE0FEA3E064014E700F9084277409F07B
:1001EB00A37401F07F151233F590855EE0FEA3E05A
:1001FB0064024E700590854504F090855EE0FEA389
:10020B00E064034E60030205CC90842804F09084D4
:10021B00277406F022908427E064097048A3E0B4A9
:10022B00011090855EE0FEA3E064194E7004122D60
:10023B00C622908428E06401601390855EE0FEA3E3
:10024B00E064194E70079084277402F02290855E4B
:10025B00E0FEA3E064054E60030205CC908428E029
:10026B00908427F02290855EE0FEA3E064044E703C
:10027B0017908427E064086004E0B4070B9085496D
:10028B007401F0908544F02290855EE0FEA3E0645B
:10029B00054E701D908427E0B40607A3E0908427D9
:1002AB00F022908427E0640770030205CC7402F0FF
:1002BB0022908427E0B4082790855EE0FEA3E064DB
:1002CB00184E70069084277402F090855EE0FEA3B2
:1002DB00E064174E60030205CC90854404F0229035
:1002EB008427E06403704290855EE0FEA3E0642304
:1002FB004E701390853CE02401FFE433FE7C007DBF
:10030B00061215D8EDF090855EE0FEA3E064224E58
:10031B0060030205CC90853CE02405FFE433FE7CB2
:10032B00007D061215D8EDF022908427E0B4040C62
:10033B0090855EE0FEA3E0FF12294822908427E01F
:10034B006405600302044F90855EE0FEA3E0642128
:10035B004E7031908435E0602614F0908527E0FED6
:10036B00A3E0FF7DB47C00122EF6908527EEF0A360
:10037B00EFF07F011233F59085447401F080057F17
:10038B00121233F590855EE0FEA3E064244E600EFE
:10039B0090855EE0A3E064254E60030205CC90855A
:1003AB005EE0FEA3E064244E7059908429E0C39470
:1003BB000E5050E004FF74017E00A807088005C3AF
:1003CB0033CE33CED8F9FF90842FE0FCA3E0FDEEC3
:1003DB005CFEEF5D4E602C908429E02401FFE4333A
:1003EB00FE7C007D031215D8ED75F031A424E9F5E0
:1003FB0082E4341CF583E493FD908429E004FF121E
:10040B002F552290855EE0FEA3E064254E702F9061
:10041B008429E0602924FFFFE434FFFE7C007D0388
:10042B001215D8ED75F031A42417F582E4341DF5BF
:10043B0083E493FD908429E014FF122F55227F1340
:10044B001233F522908427E0640260030205CC90FE
:10045B00853DE0700302051014F0E060030205CC4B
:10046B00908527E0FEA3E0FF908540E0FCA3E0FD34
:10047B00C3EF9DFFEE9C908527F0A3EFF090853F97
:10048B00E075F00BA42400F582E43432F583E49399
:10049B00FC740193FD90852DE0FEA3E0FF122EF678
:1004AB0090852DEEF0A3EFF090853FE075F00BA457
:1004BB002402F582E43432F583E493FC740193FD5A
:1004CB0090852FE0FEA3E0FF122EF690852FEEF025
:1004DB00A3EFF0908532E004F07006908531E004D4
:1004EB00F090853EE0FF1230E290853EE090842A4A
:1004FB00F0908534E004F07006908533E004F07FD3
:10050B00071233F52290855EE0FEA3E0C3940AEE5A
:10051B009400401E90855EE0A3E0D3940DEE940012
:10052B00501090855EE0A3E090854BF090854A7467
:10053B0004F090855EE0FEA3E0640A4E7004FF12A7
:10054B0005CD90855EE0FEA3E0640B4E70057F0148
:10055B001205CD90855EE0FEA3E0640C4E70057F26
:10056B00021205CD90855EE0FEA3E0640D4E700592
:10057B007F031205CD90855EE0FEA3E064144E7000
:10058B00069084277403F090855EE0FEA3E064156B
:10059B004E70069084277405F090855EE0FEA3E014
:1005AB0064164E700B9084277408F07F161233F587
:1005BB0090855EE0FEA3E064174E700590854404C1
:1005CB00F022908560EFF0E090842BF090842AE08D
:1005DB00908561F0908560E07011A3E0C3940B509F
:1005EB0003020A2D908561E024F5F0908560E0B45C
:1005FB000111A3E0D3946D4003020A2D908561E0B5
:10060B00240BF0908560E0B40213A3E075F00B842B
:10061B00E5F07003020A2D908561E014F09085607F
:10062B00E0B40315A3E075F00B84E5F0640A7003E6
:10063B00020A2D908561E004F0908429E0FF9085FB
:10064B0061E0FD1225E2908562EFF0E0640170033A
:10065B00020A2D908562E0C39402403EE0D39404DD
:10066B005038E024FEA3F0E0242CF582E43484F52A
:10067B0083E070067F031233F522908563E0242C10
:10068B00F582E43484F583E014F0908561E0FF1289
:10069B0030E27F021233F5020A17908562E0C394B1
:1006AB0012407AE0D394175074E024EEA3F0E0905C
:1006BB00853CF0908563FF12206C908564EEF0A36F
:1006CB00EFF0908564E0FEA3E0B40F0AEEB42706CA
:1006DB007F041233F522908527E0FEA3E0FF90857F
:1006EB0064E0FCA3E0C39FEC9E40067F051233F54C
:1006FB002290853D7410F0908561E090853EF090DE
:10070B008563E090853FF0908564E0FEA3E0FF9069
:10071B008540EEF0A3EFF07F061233F52290856251
:10072B00E0C39407403BE0D394095035E024F9A390
:10073B00F0E0242CF582E43484F583E0C394635019
:10074B0010908563E0242CF582E43484F583E00477
:10075B00F0908561E0FF1230E27F011233F5020A5F
:10076B0017908562E0640A6005E0640B7034908535
:10077B0027E0FEA3E0FF908562E0B40A067C007DD3
:10078B003280047C007DB4122EF6908527EEF0A308
:10079B00EFF0908561E0FF1230E27F011233F5023A
:1007AB000A17908562E0B40C27908529E0FEA3E040
:1007BB00FF7D037C00122EF6908529EEF0A3EFF05F
:1007CB00908561E0FF1230E27F011233F5020A17C8
:1007DB00908562E0B40D2790852BE0FEA3E0FF7DB2
:1007EB00027C00122EF690852BEEF0A3EFF0908595
:1007FB0061E0FF1230E27F011233F5020A17908598
:10080B0062E0B40E2D908529E0FEA3E0FF7D087C0D
:10081B0000122EF6908529EEF0A3EFF0908433743E
:10082B0001F0908561E0FF1230E27F011233F50297
:10083B000A17908562E0B40F2D90852BE0FEA3E0A4
:10084B00FF7D087C00122EF690852BEEF0A3EFF0C7
:10085B009084347401F0908561E0FF1230E27F01E7
:10086B001233F5020A17908562E0B41C1C90843594
:10087B00E0C394635003E004F0908561E0FF123015
:10088B00E27F111233F5020A17908562E0B410274C
:10089B0090852DE0FEA3E0FF7D287C00122EF690C4
:1008AB00852DEEF0A3EFF0908561E0FF1230E27F33
:1008BB000B1233F5020A17908562E0B4113C908459
:1008CB0031E0FCA3E0FD908429E0FF74017E00A8D9
:1008DB0007088005C333CE33CED8F9FFEC4EFEEDBF
:1008EB004FFF908431EEF0A3EFF0908561E0FF12A3
:1008FB0030E27F091233F5020A17908562E0B41AD1
:10090B00067F0A1233F522908562E0B418079084B3
:10091B00277404F022908562E0B419279084277421
:10092B0009F0A37402F07F141233F5908436E06063
:10093B0003020A2D04F0908435E004F09085447492
:10094B0001F022908562E064057046908429E0C333
:10095B00940E4003020A2D908534E004F07006904B
:10096B008533E004F0908429E02401FFE433FE7C1E
:10097B00007D031215D8ED75F031A424E9F582E45E
:10098B00341CF583E493FD908429E004FF122F556A
:10099B0022908562E064067044908429E070030223
:1009AB000A2D908534E004F07006908533E004F056
:1009BB00908429E024FFFFE434FFFE7C007D0312CA
:1009CB0015D8ED75F031A42417F582E4341DF583A9
:1009DB00E493FD908429E014FF122F552290856239
:1009EB00E0B41B28908561E090842AF0908534E078
:1009FB0004F07006908533E004F09084277407F0C0
:100A0B007F171233F59085447401F022908561E0D5
:100A1B0090842AF0908534E004F07006908533E0E2
:100A2B0004F022908566EEF0A3EFF0E4A3F0A3F0C0
:100A3B00908566E0A3E0540F90856AF0A37404F0F0
:100A4B00908566E0FEA3E0C3EE9420401A90856685
:100A5B00E0A3E09479EE9420500D908566E0A3E03E
:100A6B00FF12304D7E0022908566E0FEA3E0B400BD
:100A7B000CEEB4130890853AE0FF7E002290856659
:100A8B00E0FEA3E0B4100CEEB4130890853CE0FF3D
:100A9B007E0022908566E0FEA3E0B42016EEB41330
:100AAB0012908428E0B401067E007F0080047E0053
:100ABB007F0122908566E0FEA3E0B4300CEEB41308
:100ACB0008908548E0FF7E0022908566E0FEA3E05B
:100ADB0064407003EE6413702D908527E0FEA3E055
:100AEB00D39478EE94005019908537E0FEA3E0FF85
:100AFB007C007D061215D8EF30E0067E007F01806A
:100B0B00047E007F0022908566E0FEA3E0C3945034
:100B1B00EE94134039908566E0A3E0D39453EE94A2
:100B2B0013502B90854AE06020908566E0A3E0246B
:100B3B00BAFFEE34ECFE90854BE07C00B5070AEC77
:100B4B00B506067E007F0180047E007F0022908523
:100B5B0066E0FEA3E0C39460EE9413404A90856672
:100B6B00E0A3E0D39465EE9413503C908555E0FFE1
:100B7B0090856AE0C39F502A90854DE0FCA3E0FD71
:100B8B00A3E0FEA3E0FF90856AE0908570F090856E
:100B9B0055E0908571F0122C4EEF2401FFE433FEEB
:100BAB0080047E007F0022908566E0FEA3E0C39464
:100BBB0070EE94134026908566E0A3E0D39475EE17
:100BCB0094135018908556E0FF90856AE0C39F50B0
:100BDB00067E007F0B80047E007F0022908566E0FE
:100BEB00FEA3E0B4800CEEB41308908558E0FF7EB2
:100BFB000022908566E0FEA3E0B4700CEEB4110801
:100C0B00908433E0FF7E0022908566E0FEA3E0B483
:100C1B00710CEEB41108908434E0FF7E00229085B5
:100C2B0066E0FEA3E054F08EF01217AE0C7B1100C1
:100C3B000C8E11100CA111200CB411300CC71140EB
:100C4B000CE011500D0E11600D2411900D3D11A0F3
:100C5B000D7311B00D8C11C00D9F12000DC1121030
:100C6B000DE312200E0512300E27124000000E3934
:100C7B00908527E0FEA3E0FF908568EEF0A3EFF0F0
:100C8B00020E3D908529E0FEA3E0FF908568EEF013
:100C9B00A3EFF0020E3D90852BE0FEA3E0FF9085C5
:100CAB0068EEF0A3EFF0020E3D90852DE0FEA3E081
:100CBB00FF908568EEF0A3EFF0020E3D90852FE0DC
:100CCB00FEA3E0FF908568EEF0A3EFF090856B74C8
:100CDB0003F0020E3D90856AE0C394064004E4FEE7
:100CEB00FF2290856AE0FFC313242CF582E4348441
:100CFB00F583E0FF7E0090856AE05401FD7B0212D4
:100D0B002D4F22908435E0FF908568E4F0A3EFF03F
:100D1B0090856B7402F0020E3D908429E02401FF54
:100D2B00E433908568F0A3EFF090856B7402F002CA
:100D3B000E3D908535E0FEA3E0FF7C007D3C121557
:100D4B00D87C007D641215C6AA06AB07908535E0EA
:100D5B00FEA3E0FF7D3C1215D8EB2DFFEA3C9085FE
:100D6B0068F0A3EFF0020E3D908531E0FEA3E0FFAB
:100D7B00908568EEF0A3EFF090856B7402F0020E95
:100D8B003D908533E0FEA3E0FF908568EEF0A3EF86
:100D9B00F0020E3D90853CE075F00BA424FAF58231
:100DAB00E43431F583E493FE740193FF908568EE90
:100DBB00F0A3EFF0807C90853CE075F00BA424FC55
:100DCB00F582E43431F583E493FE740193FF90854F
:100DDB0068EEF0A3EFF0805A90853CE075F00BA421
:100DEB0024FEF582E43431F583E493FE740193FF22
:100DFB00908568EEF0A3EFF0803890853CE075F0BD
:100E0B000BA42400F582E43432F583E493FE7401E1
:100E1B0093FF908568EEF0A3EFF0801690853CE091
:100E2B00FF12206C908568EEF0A3EFF08004E4FED7
:100E3B00FF22908568E0FEA3E0FFA3E0FDA3E0FBAB
:100E4B00122D4F22908564EBF0A3EAF0A3E9F0A3F7
:100E5B00ECF0A3EDF0E4A3F0A3F0908569E0FEA322
:100E6B00E0C39440EE94015029908564E0FBA3E02D
:100E7B00FAA3E0F9908569E0A3E0F5828E83E41292
:100E8B0015A490856AE004F07006908569E004F083
:100E9B0080C8908564E0FBA3E0FAA3E0F99085702D
:100EAB007453F0A304F0E4FDFC122FAA908564E0C8
:100EBB00FBA3E0FAA3E0F9908570E4F0A37402F0D1
:100ECB00FD7C00122FAA908564E0FBA3E0FAA3E05F
:100EDB00F9A3E0FEA3E0FF908570EEF0A3EFF07DA9
:100EEB00047C00122FAA908429E0FF908564E0FB1C
:100EFB00A3E0FAA3E0F9900006EF1215A490842A60
:100F0B00E0FF908564E0FBA3E0FAA3E0F990000713
:100F1B00EF1215A490842BE0FF908564E0FBA3E017
:100F2B00FAA3E0F9900008EF1215A4908564E0FB9A
:100F3B00A3E0FAA3E0F9908527E0FEA3E0FF9085FC
:100F4B0070EEF0A3EFF07D0A7C00122FAA9085645F
:100F5B00E0FBA3E0FAA3E0F9908529E0FEA3E0FF14
:100F6B00908570EEF0A3EFF07D0C7C00122FAA9011
:100F7B008564E0FBA3E0FAA3E0F990852BE0FEA3E8
:100F8B00E0FF908570EEF0A3EFF07D0E7C00122F4A
:100F9B00AA908564E0FBA3E0FAA3E0F990852DE02D
:100FAB00FEA3E0FF908570EEF0A3EFF07D107C00C8
:100FBB00122FAA908564E0FBA3E0FAA3E0F99085D9
:100FCB002FE0FEA3E0FF908570EEF0A3EFF07D1213
:100FDB007C00122FAA90842CE0FF908564E0FBA389
:100FEB00E0FAA3E0F9900014EF1215A490842DE021
:100FFB00FF908564E0FBA3E0FAA3E0F9900015EF06
:10100B001215A490842EE0FF908564E0FBA3E0FA18
:10101B00A3E0F9900016EF1215A4908433E0FF9033
:10102B008564E0FBA3E0FAA3E0F9900018EF12153A
:10103B00A4908434E0FF908564E0FBA3E0FAA3E086
:10104B00F9900019EF1215A4908435E0FF90856498
:10105B00E0FBA3E0FAA3E0F990001AEF1215A490BD
:10106B008436E0FF908564E0FBA3E0FAA3E0F990FF
:10107B00001BEF1215A4908564E0FBA3E0FAA3E03C
:10108B00F9908531E0FEA3E0FF908570EEF0A3EFC1
:10109B00F07D1C7C00122FAA908564E0FBA3E0FA84
:1010AB00A3E0F9908533E0FEA3E0FF908570EEF0AE
:1010BB00A3EFF07D1E7C00122FAA908564E0FBA3AA
:1010CB00E0FAA3E0F9908535E0FEA3E0FF90857090
:1010DB00EEF0A3EFF07D207C00122FAA908427E086
:1010EB00B407047F0180027F00908564E0FBA3E0DE
:1010FB00FAA3E0F9900022EF1215A4908564E0FBAF
:10110B00A3E0FAA3E0F990002374A71215A490852D
:10111B0048E0FF908564E0FBA3E0FAA3E0F99000C0
:10112B0024EF1215A4908564E0FBA3E0FAA3E0F989
:10113B0090842FE0FEA3E0FF908570EEF0A3EFF01C
:10114B007D267C00122FAA908564E0FBA3E0FAA316
:10115B00E0F9908431E0FEA3E0FF908570EEF0A300
:10116B00EFF07D287C00122FAAE4908569F0A3F0A4
:10117B00908569E0FEA3E0C394F0EE94005040909C
:10118B008569E0A3E02437F58274843EF583E0FFA4
:10119B00908564E0FBA3E0FAA3E0F9908569E0FC9D
:1011AB00A3E0242AFDE43C8D82F583EF1215A49075
:1011BB00856AE004F07006908569E004F080B190D8
:1011CB008564E0FBA3E0FAA3E0F97D3E7C01122BE2
:1011DB0021908570EEF0A3EFF0908564E0FBA3E027
:1011EB00FAA3E0F97D3E122FAA2290856EEBF0A3B5
:1011FB00EAF0A3E9F090856EE0FBA3E0FAA3E0F937
:10120B007D267C0012312A908571EEF0A3EFF090D1
:10121B00856EE0FBA3E0FAA3E0F97D287C00123198
:10122B002A908573EEF0A3EFF090856EE0FBA3E0C0
:10123B00FAA3E0F9E4FDFC12312AEF64547003EEDB
:10124B006453704E90856EE0FBA3E0FAA3E0F97D4A
:10125B00027C0012312AEF64024E703690856EE0EC
:10126B00FBA3E0FAA3E0F97D3E7C01122B21C00623
:10127B00C00790856EE0FBA3E0FAA3E0F97D3E1278
:10128B00312AAC06AD07D007D006ED6F7002EC6EBD
:10129B0060037F002290856EE0FBA3E0FAA3E0F9E8
:1012AB00900006121532C3940F507190856EE0A317
:1012BB00E0A3E0900007121532C39479505E90853D
:1012CB006EE0A3E0A3E0900008121532D394035014
:1012DB004B90856EE0A3E0A3E0900006121532FF61
:1012EB0074017E00A807088005C333CE33CED8F92E
:1012FB00FF908571E0FCA3E0FDEE5CFEEF5D4E60C0
:10130B001B908571E0FEA3E0D394FFEE947F500C0D
:10131B00A3E0FEA3E094FFEE947F40037F002290B6
:10132B00856EE0FBA3E0FAA3E0F97D0A7C001231A5
:10133B002AEF4E70030213E390856EE0FBA3E0FAF5
:10134B00A3E0F97D0A7C0012312AD3EF940FEE94BF
:10135B002740030213E390856EE0FBA3E0FAA3E0C2
:10136B00F97D0C7C0012312AEF4E606C90856EE09B
:10137B00FBA3E0FAA3E0F97D0C7C0012312AD3EF3A
:10138B00940FEE9427505190856EE0FBA3E0FAA3E7
:10139B00E0F97D0E7C0012312AD3EF940FEE9427E7
:1013AB00503690856EE0FBA3E0FAA3E0F97D107C4C
:1013BB000012312AD3EF940FEE9427501B90856EB9
:1013CB00E0FBA3E0FAA3E0F97D127C0012312AD3F3
:1013DB00EF940FEE942740037F002290856EE0FB85
:1013EB00A3E0FAA3E0F9900014121532D3946340F2
:1013FB000302148490856EE0A3E0A3E09000151225
:10140B001532D39463507290856EE0A3E0A3E09005
:10141B000016121532D39463505F90856EE0A3E0F3
:10142B00A3E0900018121532D39401504C90856EA6
:10143B00E0A3E0A3E0900019121532D394015039C8
:10144B0090856EE0A3E0A3E090001A121532D394BE
:10145B0063502690856EE0A3E0A3E090001B12156D
:10146B0032D39401501390856EE0A3E0A3E090007B
:10147B0022121532D3940140037F002290856EE037
:10148B00FBA3E0FAA3E0F97D207C0012312AD3EF15
:10149B00946FEE941740037F002290856EE0FBA3C0
:1014AB00E0FAA3E0F9900023121532B4A71390854C
:1014BB006EE0A3E0A3E0900024121532D394034016
:1014CB00037F002290856EE0FBA3E0FAA3E0F99086
:1014DB000007121532FF90856EE0A3E0A3E09000A9
:1014EB000612153275F00384AEF075F079EEA42474
:1014FB007BF582E5F0341DF583E5822FF582E4352B
:10150B0083F583E493B401037F00227F0122BB01A7
:10151B000689828A83E0225002E722BBFE02E32285
:10152B0089828A83E49322BB010CE58229F582E54B
:10153B00833AF583E0225006E92582F8E622BBFECA
:10154B0006E92582F8E222E58229F582E5833AF560
:10155B0083E49322BB010FF8E58229F582E5833AF8
:10156B00F583E028F0225009C58229F8E58226F69A
:10157B0022BBFE09C58229F8E22582F222F8EA2570
:10158B0083F583E9932822BB010689828A83F022A3
:10159B005002F722BBFE01F322F8BB010DE58229B5
:1015AB00F582E5833AF583E8F0225006E92582C8F7
:1015BB00F622BBFE05E92582C8F222EF8DF0A4A826
:1015CB00F0CF8CF0A428CE8DF0A42EFE22BC000B05
:1015DB00BE0029EF8DF084FFADF022E4CCF875F05E
:1015EB0008EF2FFFEE33FEEC33FCEE9DEC9840053D
:1015FB00FCEE9DFE0FD5F0E9E4CEFD22EDF8F5F003
:10160B00EE8420D21CFEADF075F008EF2FFFED330A
:10161B00FD4007985006D5F0F222C398FD0FD5F088
:10162B00EA22A3F8E0C5F025F0F0E58215827002FE
:10163B001583E0C838F0E822E88FF0A4CC8BF0A437
:10164B002CFCE98EF0A42CFC8AF0EDA42CFCEA8E89
:10165B00F0A4CDA8F08BF0A42DCC3825F0FDE98FAC
:10166B00F0A42CCD35F0FCEB8EF0A4FEA9F0EB8FA3
:10167B00F0A4CFC5F02ECD39FEE43CFCEAA42DCE70
:10168B0035F0FDE43CFC2275F008758200EF2FFF6E
:10169B00EE33FECD33CDCC33CCC58233C5829BED3F
:1016AB009AEC99E58298400CF582EE9BFEED9AFD43
:1016BB00EC99FC0FD5F0D6E4CEFBE4CDFAE4CCF9F3
:1016CB00A88222B800C1B90059BA002DEC8BF08466
:1016DB00CFCECDFCE5F0CBF97818EF2FFFEE33FE34
:1016EB00ED33FDEC33FCEB33FB10D703994004EBEC
:1016FB0099FB0FD8E5E4F9FA227818EF2FFFEE33B8
:10170B00FEED33FDEC33FCC933C910D7059BE99AC9
:10171B004007EC9BFCE99AF90FD8E0E4C9FAE4CC5A
:10172B00FB2275F010EF2FFFEE33FEED33FDCC33C4
:10173B00CCC833C810D7079BEC9AE899400AED9BAD
:10174B00FDEC9AFCE899F80FD5F0DAE4CDFBE4CC8C
:10175B00FAE4C8F922EB9FF5F0EA9E42F0E99D42CC
:10176B00F0E89C45F022ECF0A3EDF0A3EEF0A3EF34
:10177B00F022A8828583F0D083D08212179412179F
:10178B0094121794121794E473E493A3C583C5F0D2
:10179B00C583C8C582C8F0A3C583C5F0C583C8C5BA
:1017AB0082C822D083D082F8E493701274019370B4
:1017BB000DA3A393F8740193F5828883E4737402E9
:1017CB0093B5F0067403936860E9A3A3A3A380D831
:1017DB00EC8EF0A4CCC5F0CCCDF8EFA4CEC5F02D9B
:1017EB00FDE43CFCE8A42EC8C5F03DFDE43CFCEF59
:1017FB00A4FFE5F028FEE43DFDE43CFC2290856A65
:10180B00EBF0A3EAF0A3E9F090856AE0FBA3E0FA22
:10181B00A3E0F91211F5EF7002FF22122CD0908584
:10182B006AE0FBA3E0FAA3E0F99000221215326004
:10183B00047F0780027F02908427EFF090856AE097
:10184B00FBA3E0FAA3E0F97D047C0012312A90851A
:10185B0042EEF0A3EFF090856AE0FBA3E0FAA3E081
:10186B00F9900006121532908429F090856AE0A356
:10187B00E0A3E090000712153290842AF090856A5D
:10188B00E0A3E0A3E090000812153290842BF090B7
:10189B00856AE0A3E0A3E07D267C0012312A9084C8
:1018AB002FEEF0A3EFF090856AE0FBA3E0FAA3E044
:1018BB00F97D0A7C0012312A908527EEF0A3EFF018
:1018CB0090856AE0FBA3E0FAA3E0F97D0C7C0012A3
:1018DB00312A908529EEF0A3EFF090856AE0FBA307
:1018EB00E0FAA3E0F97D0E7C0012312A90852BEEF5
:1018FB00F0A3EFF090856AE0FBA3E0FAA3E0F97D9B
:10190B00107C0012312A90852DEEF0A3EFF090851C
:10191B006AE0FBA3E0FAA3E0F97D127C0012312A06
:10192B0090852FEEF0A3EFF0E490856DF090856D30
:10193B00E0C394035031E02414FFE433FE90856A36
:10194B00E0FBA3E0FAA3E0F98F828E83121532FF3E
:10195B0090856DE0242CF582E43484F583EFF090D0
:10196B00856DE004F080C690856AE0FBA3E0FAA3E6
:10197B00E0F97D287C0012312A908431EEF0A3EF40
:10198B00F090856AE0FBA3E0FAA3E0F9900018124F
:10199B001532908433F090856AE0A3E0A3E09000C9
:1019AB0019121532908434F090856AE0A3E0A3E01D
:1019BB0090001A121532908435F090856AE0A3E0FE
:1019CB00A3E090001B121532908436F090856AE0EC
:1019DB00A3E0A3E07D1C7C0012312A908531EEF050
:1019EB00A3EFF090856AE0FBA3E0FAA3E0F97D1E7C
:1019FB007C0012312A908533EEF0A3EFF090856ACC
:101A0B00E0FBA3E0FAA3E0F97D207C0012312A90E1
:101A1B008535EEF0A3EFF0E490856DF090856DE0E9
:101A2B00C394F05031E0242AFFE433FE90856AE042
:101A3B00FBA3E0FAA3E0F98F828E83121532FF909D
:101A4B00856DE02437F582E43484F583EFF09085DF
:101A5B006DE004F080C690856AE0FBA3E0FAA3E09A
:101A6B00F9123171908548EFF09085467401F07F43
:101A7B000F1233F57F0122908560EEF0A3EFF0900B
:101A8B008560E0FEA3E0C39428EE94005003021B94
:101A9B0067908560E0A3E0D39431EE94004003029D
:101AAB001B67908560E0A3E024D8A3F0908557E0F6
:101ABB007049908555E0C394065040E47F0AFEFDC3
:101ACB00FC90854DE0F8A3E0F9A3E0FAA3E0FB124C
:101ADB001643A804A905AA06AB07908562E0FFE4AC
:101AEB00FCFDFEEB2FFFEE3AFEED39FDEC38FC90E2
:101AFB00854D121771908555E004F0908557E06085
:101B0B0049908556E0C394065040E47F0AFEFDFCE5
:101B1B00908551E0F8A3E0F9A3E0FAA3E0FB1216DD
:101B2B0043A804A905AA06AB07908562E0FFE4FC75
:101B3B00FDFEEB2FFFEE3AFEED39FDEC38FC908508
:101B4B0051121771908556E004F0908557E06004B0
:101B5B007F0180027F00908558EFF022908560E036
:101B6B00FEA3E064324E7038908557E0601190858B
:101B7B005112177D00000000E4908556F0800F9005
:101B8B00854D12177D00000000E4908555F090857F
:101B9B0057E060047F0180027F00908558EFF022B0
:101BAB00908560E0FEA3E064334E7073908557E040
:101BBB006032908556E06025908551E0FCA3E0FDF6
:101BCB00A3E0FEA3E0FFE47B0AFAF9F81216CE902D
:101BDB008551121771908556E014F08030E4908592
:101BEB0057F08029908555E0602390854DE0FCA34C
:101BFB00E0FDA3E0FEA3E0FFE47B0AFAF9F812167E
:101C0B00CE90854D121771908555E014F090855745
:101C1B00E060047F0180027F00908558EFF02290F6
:101C2B008560E0FEA3E064344E6003021CE7908500
:101C3B0057E07018908555E06406600790855874DE
:101C4B0002F0229085577401F0A3F022908556E0A4
:101C5B00640660079085587402F0227F407EE27D17
:101C6B00017C0090854DE0F8A3E0F9A3E0FAA3E036
:101C7B00FBC3121760703E7F407EE27D01FC9085B6
:101C8B0051E0F8A3E0F9A3E0FAA3E0FBC31217605D
:101C9B00702390855112177D0000000090854D1226
:101CAB00177D00000000E4908556F0908555F0906C
:101CBB00842704F02290855112177D0000000090BC
:101CCB00854D12177D00000000E4908557F090853C
:101CDB0056F0908555F09085587403F0220C0D0E3C
:101CEB000F10111213141F2A29282726252423220B
:101CFB002D38393A3B3C3D3E3F404B5655545352A1
:101D0B0051504F4E596465666768696A6B6C0C1766
:101D1B00222D38434E596465665B50453A2F241982
:101D2B000E0F101B26313C47525D68696A5F5449A0
:101D3B003E33281D1213141F2A35404B56616C0C71
:101D4B000D0E0F10111213141F2A35404B56616CD8
:101D5B006B6A696867666564594E43382D22232484
:101D6B0025262728333E495453525150453A3B3C84
:101D7B00010101010101010101010101060007003F
:101D8B000C0000120001011C0101010110010102F4
:101D9B0001010012000D00000A0000010100010109
:101DAB0001011901010101010008000C00001300E1
:101DBB0000010101010101010101010301011400F5
:101DCB0000000D00000A000101000D0101010101DD
:101DDB00010C010100070002000A000005010101CE
:101DEB0001010101010101010101010101010101D8
:101DFB000101010101061C00000018150000010182
:101E0B00000114010801000D070101070100010089
:101E1B0001000100010100010D010C010001020193
:101E2B00010C01000100010D010001010010000176
:101E3B000E0100010A010100010A0113010001005A
:101E4B0001011301000100010A0100010100020060
:101E5B00010003000C050101010101010101010158
:101E6B000101010101010101010101010101060053
:101E7B0007000C1000140001010101010101010117
:101E8B00010201010C0A00000D0000010001010319
:101E9B00010101010100010B010100010400050119
:101EAB00150111010100010A0101010001000101ED
:101EBB001601000209070D010001010F01010101CB
:101ECB000101010D01011A0C000800001C15000195
:101EDB00010101010101010101010190855EEFF09A
:101EEB00E4908565F0908427E064026003021F9004
:101EFB00908563F0908563E0C394794003021F9053
:101F0B00E02400FFE4342090855FF0A3EFF0908590
:101F1B005FE0FEA3E0FF120A2E908561EEF0A3EFC7
:101F2B00F090855EE07027908563E075F002A42445
:101F3B0000F582E5F03480F583E0FEA3E0FF9085A9
:101F4B0061E0FCA3E0FDEF6D7002EE6C602E9085FE
:101F5B005FE0FEA3E0FFA3E0FCA3E0FD12327D9067
:101F6B008561E0FEA3E0FFA3E075F002A42400F579
:101F7B0082E5F03480F583EEF0A3EFF0908563E01B
:101F8B0004F0021EFF9085657479F0E4908563F090
:101F9B00908563E0C3941A400302206BE4A3F09096
:101FAB008563E090303393FF908564E0C39F4003DB
:101FBB00022062908563E025E024FFF582E4342F54
:101FCB00F583E493FE740193FF908564E02FFFE4A7
:101FDB003E90855FF0A3EFF090855FE0FEA3E0FFFE
:101FEB00120A2E908561EEF0A3EFF090855EE07003
:101FFB0027908565E075F002A42400F582E5F034A6
:10200B0080F583E0FEA3E0FF908561E0FCA3E0FD9B
:10201B00EF6D7002EE6C603090855FE0FEA3E0FF29
:10202B00A3E0FCA3E0FD12327D908561E0FEA3E00E
:10203B00FF908565E075F002A42400F582E5F0348D
:10204B0080F583EEF0A3EFF0908565E004F09085CA
:10205B0064E004F0021FAA908563E004F0021F9B6A
:10206B002290856CEFF0E0C394065022E075F00BE4
:10207B00A424FEF582E43431F583E493FE740193DA
:10208B00FF908529E0FCA3E0D39FEC9E50057E27B3
:10209B007F0F2290856CE075F00BA424FEF582E493
:1020AB003431F583E493FE740193FF908529E0FCB2
:1020BB00A3E0C39FFFEC9E90856DF0A3EFF090859E
:1020CB006CE075F00BA424FAF582E43431F583E46B
:1020DB0093FE740193FF90856DE0FCA3E0FDEF2D63
:1020EB00FFEE3CFEEF24FFFFEE34FFFE90856DE02C
:1020FB00A3E01215D8908571EEF0A3EFF090856CEC
:10210B00E075F00BA42404F582E43432F583E493F8
:10211B00601190852BE0FEA3E0FFEEC313FEEF13DF
:10212B00FF800890852BE0FEA3E0FF908573EEF017
:10213B00A3EFF090856CE075F00BA424FCF582E422
:10214B003431F583E493FE740193FF908573E0FCC7
:10215B00A3E0FDD3EF9DEE9C402790856CE075F0DE
:10216B000BA424FCF582E43431F583E493FE740173
:10217B0093FF908573E0A3E0C3EF9DFFEE9CFE8081
:10218B00047E007F0090856FEEF0A3EFF0A3E0FEDE
:10219B00A3E024FFFFEE34FFFE90856FE0FCA3E08D
:1021AB00FD1217DB908575121771E47F0F7E27FDEB
:1021BB00FC908575E0F8A3E0F9A3E0FAA3E0FBD36C
:1021CB0012176040067E277F0F800C908575E0A369
:1021DB00E0A3E0FEA3E0FF22908579EEF0A3EFF001
:1021EB00A3EBF0A3EAF0A3E9F0908579E0A3E05428
:1021FB0001908580F0908579E0FEA3E0FFEEC3139C
:10220B00FEEF13FF908579EEF0A3EFF0E4F5F1907C
:10221B008579E0FEA3E0EEF5F2908579E0A3E0F599
:10222B00F375F40175F88F30FCFD908580E0604FFD
:10223B0090857EE0FEA3E0D39400EE9400404075C1
:10224B00F88390857BE0FBA3E475F00112162DA9B2
:10225B00F0FA121519F5FC90857BE0FBA3E475F001
:10226B000112162DA9F0FA121519F5FDD2FE20FE5A
:10227B00FD90857FE024FFF090857EE034FFF075C4
:10228B00F88F90857EE0FEA3E0C39402EE940040AD
:10229B006990857BE0FBA3E475F00112162DA9F084
:1022AB00FA121519F5FA90857BE0FBA3E475F001A2
:1022BB0012162DA9F0FA121519F5FB90857BE0FB90
:1022CB00A3E475F00112162DA9F0FA121519F5FCFD
:1022DB0090857BE0FBA3E475F00112162DA9F0FAB3
:1022EB00121519F5FDD2FE20FEFD90857FE024FE30
:1022FB00F090857EE034FFF0808890857EE0FEA331
:10230B00E04E603275F88C90857BE0FBA3E475F0B2
:10231B000112162DA9F0FA121519F5FA90857BE02A
:10232B00FBA3E475F00112162DA9F0FA121519F59D
:10233B00FBD2FE20FEFDE4F5F822908562EBF0A3C4
:10234B00EAF0A3E9F0A3EDF01232B8908566EFF056
:10235B0012323C908567EFF0908562E0FBA3E0FAC8
:10236B00A3E0F9900003E41215A4908562E0FBA3AF
:10237B00E0FAA3E0F9900001121532FF908567E0B7
:10238B006F60047F0180027F00908562E0FBA3E019
:10239B00FAA3E0F9900004EF1215A4908567E070A2
:1023AB0035908562E0FBA3E0FAA3E0F9900001E42D
:1023BB001215A4908562E0FBA3E0FAA3E0F974FF89
:1023CB00121592908562E0FBA3E0FAA3E0F990006E
:1023DB0002E41215A422908562E0FBA3E0FAA3E0CD
:1023EB00F9121519FF908566E06F6036E0FF908556
:1023FB0062E0A3E0A3E0EF121592908562E0FBA3ED
:10240B00E0FAA3E0F990000374011215A490856221
:10241B00E0FBA3E0FAA3E0F990000274061215A406
:10242B00805D908562E0FBA3E0FAA3E0F9900002E7
:10243B001215326012908562E0A3E0A3E0900002D7
:10244B0074FF12155F8038908566E064016004E0CC
:10245B00B4022C908565E07026908562E0FBA3E0CA
:10246B00FAA3E0F990000374011215A4908562E0C1
:10247B00FBA3E0FAA3E0F990000274061215A490F6
:10248B008567E0FF908562E0FBA3E0FAA3E0F9909B
:10249B000001EF1215A422908564EFF07B017A8185
:1024AB0079A7E4FDFF122A45EF60107B017A817951
:1024BB00A71211F5EF60047F0180027F0090856504
:1024CB00EFF07B017A8279E77D01E4FF122A45EF79
:1024DB0060107B017A8279E71211F5EF60047F01BE
:1024EB0080027F00908566EFF0908565E0700AA30F
:1024FB00E07006908546F0FF22E4908567F09085AA
:10250B0066E0600B908565E0700590856704F09040
:10251B008565E0604BA3E060477B017A8179A71268
:10252B0032EFC006C0077B017A8279E71232EFAC3B
:10253B0006AD07D007D006C3ED9FFFEC9E908568D4
:10254B00F0A3EFF0908568E0FEA3E04E601290855B
:10255B0068E0A3E0C3EE948050069085677401F0A9
:10256B00908567E09081A0F09081A67401F0908532
:10257B0067E060087B017A8279E780067B017A81CC
:10258B0079A71232EF908542EEF0A3EFF0908546DB
:10259B007401F0908564E0701C908567E060087BA7
:1025AB00017A8279E780067B017A8179A7123171F2
:1025BB00908548EFF0908564E06019908567E06046
:1025CB00087B017A8279E780067B017A8179A712F1
:1025DB00180880027F012290856EEFF0A3EDF0903A
:1025EB00856EE0C3940F5007A3E0C3947940037F3B
:1025FB00012290856EE075F00384908570E5F0F014
:10260B0090856FE0FFA3E075F079A4247BF582E55C
:10261B00F0341DF583E5822FF582E43583F583E4F1
:10262B0093908571F090856EE0FFA3E0FD1231B7BA
:10263B00EF60037F0022908570E075F031A424E8F1
:10264B00F582E4341CF583E493FF90856FE0B507C6
:10265B000D90856EE060047F0680027F00229085DE
:10266B0070E075F031A42418F582E4341DF583E491
:10267B0093FF90856FE0B5070E90856EE0B40E0466
:10268B007F1B80027F052290856EE0B40E1E908525
:10269B0070E075F031A42417F582E4341DF583E462
:1026AB0093FF90856FE0B507037F1722908571E04C
:1026BB00B41A2990856EE0FF74017E00A80708808C
:1026CB0005C333CE33CED8F9FF908431E0FCA3E0C1
:1026DB00FDEE5CFEEF5D4E60037F0022908571E0A6
:1026EB00C39412401EE0D39416501890856EE0757B
:1026FB00F00384FF908571E02FF0E0D39416400334
:10270B007416F0908571E0FF22908545E06014E42B
:10271B00F07F011224A2EF700A90853A7410F0A397
:10272B007430F0908544E0700302282DE4908544CA
:10273B00F09081A6E0600C9081A0E0FFC374019F34
:10274B00FF80027F0090855EEFF0908542E0FEA354
:10275B00E02401FFE43E908560F0A3EFF07B017A6B
:10276B008179A7908560E0FCA3E0FD120E4F908568
:10277B005EE0FD7B017A8179A77F01122A45EF602C
:10278B002390855EE0FD7B017A8279E7E4FF122AD4
:10279B0045EF60107B017A8279E71211F5EF600447
:1027AB007F0180027F0090855FEFF0E06052E49044
:1027BB008562F0A3F0908562E0FEA3E0C39440EE47
:1027CB009401503C908562E0A3E024E7F58274828B
:1027DB003EF583E0FF908562E0FCA3E024A7F58241
:1027EB0074813CF583E06F6007E490855FF08010A7
:1027FB00908563E004F07006908562E004F080B58C
:10280B0090855FE0600E90855EE09081A0F09081F6
:10281B00A67401F090855FE0FFA3E0FCA3E0FD123E
:10282B0030982290857DEEF0A3EFF0A3EBF0A3EAB6
:10283B00F0A3E9F090857DE0A3E05401908584F04E
:10284B0090857DE0FEA3E0FFEEC313FEEF13FF9038
:10285B00857DEEF0A3EFF0E4F5F190857DE0FEA32E
:10286B00E0EEF5F290857DE0A3E0F5F375F40175EC
:10287B00F8AF30FCFD908582E0FEA3E0D39400EE30
:10288B0094005003022944D2FE20FEFD908584E083
:10289B00704D908582E0FEA3E0D39400EE9400404F
:1028AB003E90857FE0FBA3E475F00112162DA9F095
:1028BB00FAE5FA12159290857FE0FBA3E475F0011F
:1028CB0012162DA9F0FAE5FB12159290858474016E
:1028DB00F0908583E024FFF0908582E034FFF09048
:1028EB008584E06401708E908582E0FEA3E0D39432
:1028FB0000EE9400500302288090857FE0FBA3E458
:10290B0075F00112162DA9F0FAE5FC1215929085BF
:10291B007FE0FBA3E475F00112162DA9F0FAE5FD9B
:10292B00121592E4908584F0908583E024FFF0905B
:10293B008582E034FFF0022880E4F5F82290856070
:10294B00EEF0A3EFF0E4A3F0A3F0908560E0FEA31C
:10295B00E0641E4E7006A3F0A37423F0908560E034
:10296B00FEA3E0641F4E7006A3F0A37423F09085C2
:10297B0060E0FEA3E064204E7006A3F0A37414F095
:10298B00908562E0FEA3E04E7003022A44908562BC
:10299B00E0FEA3E0FF90852DE0FCA3E0C39FEC9E3F
:1029AB0050067F0C1233F52290852DE0FEA3E0FF3D
:1029BB00908562E0FCA3E0FDC3EF9DFFEE9C90854C
:1029CB002DF0A3EFF0908560E0FEA3E0641E4E7047
:1029DB0017908529E0FEA3E0FF7D037C00122EF605
:1029EB00908529EEF0A3EFF0908560E0FEA3E06404
:1029FB001F4E701790852BE0FEA3E0FF7D037C003C
:102A0B00122EF690852BEEF0A3EFF0908560E0FE92
:102A1B00A3E064204E7017908527E0FEA3E0FF7DB6
:102A2B00B47C00122EF6908527EEF0A3EFF07F0119
:102A3B001233F59085447401F02290856AEFF0A370
:102A4B00EDF0A3EBF0A3EAF0A3E9F090856AE06068
:102A5B00047FA580027F5A90856FEFF0A37402F07C
:102A6B0090856BE060047F1080027F00908571EF92
:102A7B00F0E4A3F0A37430F0E4A3F0A3F0A374A0EC
:102A8B00F090856AE0601B90856CE0FBA3E0FAA3F5
:102A9B00E0F990857EE4F0A374A0F07F007E301205
:102AAB0021E37B017A85796F90857EE4F0A3740432
:102ABB00F07F087E001221E3E4908577F0A3F0907D
:102ACB008577E0FEA3E0C3942CEE940150457F057F
:102ADB007E001233A47F087E0012334EEE702490DA
:102AEB00856AE0701B90856CE0FBA3E0FAA3E0F92C
:102AFB00908582E4F0A374A0F07F007E3012282E24
:102B0B007F0122908578E004F07006908577E004D1
:102B1B00F080AC7F0022908575EBF0A3EAF0A3E97F
:102B2B00F0A3ECF0A3EDF074FFA3F0A3F090857885
:102B3B0074FFF5F012162D45F0607390857AE0FE68
:102B4B00A3E0FF908575E0FBA3E475F00112162D51
:102B5B00A9F0FA121519FDEEEF6DFF90857AEEF0E4
:102B6B00A3EFF0E4A3F090857CE0C3940850BE90F3
:102B7B00857AE0A3E030E01990857AE0FEA3E0FFD0
:102B8B00EEC313FEEF13FFEE64A0FEEF6401FF80B4
:102B9B000F90857AE0FEA3E0FFEEC313FEEF13FF69
:102BAB0090857AEEF0A3EFF0A3E004F080B8908567
:102BBB007AE0FEA3E0FF22787FE4F6D8FD75810969
:102BCB00022C0902002EE493A3F8E493A34003F62E
:102BDB008001F208DFF48029E493A3F85407240C56
:102BEB00C8C333C4540F4420C8834004F456800137
:102BFB0046F6DFE4800B010204081020408090347D
:102C0B0004E47E019360BCA3FF543F30E509541FDD
:102C1B00FEE493A360010ECF54C025E060A840B83A
:102C2B00E493A3FAE493A3F8E493A3C8C582C8CAB8
:102C3B00C583CAF0A3C8C582C8CAC583CADFE9DE8B
:102C4B00E780BE90856C12177190857312177D000B
:102C5B00000001908571E0FF908570E0C39F4003F9
:102C6B007F0022908570E004908572F0908571E072
:102C7B00FFA3E0C39F5023A3E0FCA3E0FDA3E0FE72
:102C8B00A3E0FFE47B0AFAF9F8121643908573125E
:102C9B001771908572E004F080D2908573E0F8A3F1
:102CAB00E0F9A3E0FAA3E0FB90856CE0FCA3E0FD68
:102CBB00A3E0FEA3E0FF1216CEE47B0AFAF9F812AA
:102CCB0016CEAF03229085707401F0A37484F0A329
:102CDB007427F0E490856EF0A3F090856EE0FEA370
:102CEB00E0C39432EE94015027A3E0FBA3E0FAA3D8
:102CFB00E0F990856EE0A3E0F5828E83E41215A4D3
:102D0B0090856FE004F0700690856EE004F080CA49
:102D1B00E4908427F0A37402F090842A740CF09052
:102D2B0085277401F0A37490F0A3E4F0A37412F060
:102D3B00A3E4F0A37408F09085487402F090854CDE
:102D4B00740AF02290856CEEF0A3EFF0A3EDF0A3E4
:102D5B00EBF0908571E4F0A304F090856FE0FF90A9
:102D6B00856EE0C39F4004E4FEFF2290856EE00475
:102D7B00908570F090856FE0FFA3E0C39F501DA37B
:102D8B00E0FEA3E0FF7C007D0A1215C6908571EE74
:102D9B00F0A3EFF0908570E004F080D8908571E09F
:102DAB00FCA3E0FD90856CE0FEA3E0FF1215D87C40
:102DBB00007D0A1215D8AE04AF0522908546E0902F
:102DCB008560F0908548E0908561F0908542E0FE4B
:102DDB00A3E0FF908562EEF0A3EFF0122CD090856C
:102DEB0060E0908546F0908562E0FEA3E0FF908561
:102DFB0042EEF0A3EFF0908561E0908548F090846F
:102E0B00277402F0901CE8E49390842AF090842FAE
:102E1B00E4F0A304F0908435F0908544F0E4FF12C5
:102E2B0033F52290855EEBF0A3EAF0A3E9F09085F1
:102E3B005EE0FBA3E0FAA3E0F974FF121592908514
:102E4B005EE0FBA3E0FAA3E0F990000174FF12151A
:102E5B00A490855EE0FBA3E0FAA3E0F9900002E406
:102E6B001215A490855EE0FBA3E0FAA3E0F99000B5
:102E7B0003E41215A490855EE0FBA3E0FAA3E0F94E
:102E8B00900004E41215A4227FA17E0012334EEFB2
:102E9B00640270047D0180027D007B017A8179A13F
:102EAB001223459081A4E0602D9081A1E090855E76
:102EBB00F0A37401F09081A2E0908560F0E4A3F0A0
:102ECB007B017A85795E90857EF0A37402F07FA0FA
:102EDB007E001221E3229081A5E0600E9081A2E09A
:102EEB007D00FC7FA17E0012327D22908566EEF084
:102EFB00A3EFF0A3ECF0A3EDF0908566E0FEA3E06A
:102F0B00FFFBAA06E4A3E0FEA3E0FFE4EB2FFFEA3E
:102F1B003EFEE433FDE433FCA3121771E47F0F7E16
:102F2B0027FDFC90856AE0F8A3E0F9A3E0FAA3E0A3
:102F3B00FBD312176040067E277F0F800C90856AAB
:102F4B00E0A3E0A3E0FEA3E0FF22908566EFF0A3F1
:102F5B00EDF0908566E0908429F0908567E0908491
:102F6B002AF090842FE0FCA3E0FD908566E0FF74CF
:102F7B00017E00A807088005C333CE33CED8F9FFF6
:102F8B00EC4EFEED4FFF90842FEEF0A3EFF090850B
:102F9B00447401F07F081233F57F021200DC22909B
:102FAB00856BEBF0A3EAF0A3E9F0A3ECF0A3EDF053
:102FBB00A3E0FEA3E0EEFF90856BE0FBA3E0FAA39A
:102FCB00E0F9A3E0FCA3E0F5828C83EF1215A4904B
:102FDB008570E0A3E0FF90856BE0FBA3E0FAA3E034
:102FEB00F9A3E0FCA3E02401FDE43C8D82F583EF23
:102FFB001215A42211001110112011301140115083
:10300B0011601170119011A011B011C012001210AB
:10301B0012201230124013001310132013301340E0
:10302B00135013601370138004040404030602028C
:10303B000204020404040404040101010101040656
:10304B00060190856CEFF090842AE0FF90856CE090
:10305B00B5070890842BE0241EFF2290853DE0608D
:10306B0017A3E0FF90856CE0B5070D90853DE0FF61
:10307B00C31330E0037F2222908429E0FF90856CFC
:10308B00E0FD1225E290856DEFF0E0FF2290856464
:10309B00EFF0A3ECF0A3EDF0E4908544F0908564A1
:1030AB00E0601BA3E0FEA3E0FF908542EEF0A3EFF0
:1030BB00F09085467401F07F0D1233F580057F0E7D
:1030CB001233F5908549E0600DE4F0908564E06083
:1030DB00057F011200DC22908566EFF0E0FF1313F1
:1030EB0013541FFF908429E075F010A42FF582E490
:1030FB0035F0F583E5822437F582E5833484F58357
:10310B00C083C082E0FF908566E05407FE7401A87F
:10311B0006088002C333D8FC4FD082D083F02290B4
:10312B008575EBF0A3EAF0A3E9F0A3ECF0A3EDF0C7
:10313B00908575E0FBA3E0FAA3E0F9A3E0FEA3E022
:10314B00F5828E83121532FE908575E0A3E0A3E025
:10315B00A3E0FCA3E02401FDE43C8D82F583121572
:10316B0032FDEEEDFF2290856EEBF0A3EAF0A3E9C2
:10317B00F090856EE0FBA3E0FAA3E0F99000231238
:10318B001532B4A72490856EE0A3E0A3E090002451
:10319B00121532D39403501190856EE0A3E0A3E097
:1031AB00900024121532FF80027F0222908572EF6D
:1031BB00F0A3EDF0E0FF131313541FFF908572E0A3
:1031CB0075F010A42FF582E435F0F583E5822437F2
:1031DB00F582E5833484F583E0FF908573E0540733
:1031EB00FE7401A806088002C333D8FC5FFF2200DF
:1031FB0018000D0002000800020000240013000557
:10320B00000C0003000041001B0009001200050028
:10321B00004E001E000D0018000601007D002A0064
:10322B00130026000900064000B40064012C005076
:10323B0000E4908568F0908548E0B40106908568BD
:10324B007420F0908548E0B402069085687434F0E1
:10325B00908548E0B403069085687440F09084270D
:10326B00E0B40808908568E0FFC313F0908568E030
:10327B00FF22908566EEF0A3EFF0A3ECF0A3EDF048
:10328B00908568E0FEA3E0EEA3F0908568A3E09044
:10329B00856BF0908566E0FEA3E0FF7B017A857974
:1032AB006A90857EE4F0A304F01221E32290842738
:1032BB00E07002FF22908427E0B407037F03229083
:1032CB008429E0640E701A908427E064016012E098
:1032DB006406600DE0B40906A3E0640160037F029D
:1032EB00227F012290856AEBF0A3EAF0A3E9F0902C
:1032FB00856AE0FBA3E0FAA3E0F990000412153213
:10330B00FE90856AE0A3E0A3E0900005121532FD64
:10331B00EEEDFF2290855EEFF0A3745AF0A37401DB
:10332B00F0E4A3F090855EE0908562F07B017A85F6
:10333B00795F90857EE4F0A37402F07F847E0012A7
:10334B0021E322908579EEF0A3EFF0908579E0FEF2
:10335B00A3E0FF7B017A85797B908582E4F0A3045F
:10336B00F012282E90857BE0FEA3E0FDEEEDFF2210
:10337B00C2AFC2D3C2D4E4F58E75C870F593759401
:10338B0001759502F5C9F5F875F901F5A8F5B8F5CC
:10339B009AF5A9F5B953C9FD22908579EEF0A3EF03
:1033AB00F0908579E0FEA3E0FF7808A60608A60753
:1033BB007808E6FE08E64E70F722908427E0700E40
:1033CB00908547E0FF1313543F240BFF8005908437
:1033DB0027E0FF2275C870E4F5CDF5CC75CBBC7535
:1033EB00CACD43A820D2C8D2AF2290856EEFF0E0B1
:1033FB0090853AF0A37430F0224181A0004181A660
:0D340B0000020800000012337B1233DF22A4
:00000001FF
